:100000000C9467050C948F050C948F050C948F0548
:100010000C948F050C948F050C948F050C948F0510
:100020000C948F050C948F050C948F050C94081676
:100030000C948F050C948F050C948F050C948F05F0
:100040000C94E61B0C948F050C949F1E0C94D11EEF
:100050000C948F050C948F050C948F050C948F05D0
:100060000C94DB140C948F05084AD73B3BCE016EF1
:1000700084BCBFFDC12F3D6C74319ABD56833DDAFF
:100080003D00C77F11BED9E4BB4C3E916BAAAABE0E
:10009000000000803F004649464F206F766572663B
:1000A0006C6F7721002900444D5020496E697469B6
:1000B000616C697A6174696F6E206661696C6564F0
:1000C0002028636F64652000444D50207265616490
:1000D00079212057616974696E6720666F722066A6
:1000E0006972737420696E746572727570742E2EE5
:1000F0002E00456E61626C696E6720696E74657270
:100100007275707420646574656374696F6E2028FD
:1001100041726475696E6F2065787465726E616C8A
:1001200020696E746572727570742030292E2E2EBF
:1001300000456E61626C696E6720444D502E2E2E14
:1001400000496E697469616C697A696E6720444D13
:10015000502E2E2E000A53656E6420616E79206346
:10016000686172616374657220746F20626567698B
:100170006E20444D502070726F6772616D6D696EB4
:100180006720616E642064656D6F3A20004D5055A4
:100190003630353020636F6E6E656374696F6E2024
:1001A0006661696C6564004D5055363035302063AA
:1001B0006F6E6E656374696F6E20737563636573CC
:1001C0007366756C0054657374696E672064657638
:1001D00069636520636F6E6E656374696F6E732EFD
:1001E0002E2E00496E697469616C697A696E6720A8
:1001F00049324320646576696365732E2E2E0001B3
:10020000B202FFFF0190040923A135016A02060032
:1002100001600800000000000000000060044000D1
:100220000000016202000000600400400000037B47
:10023000034CCD6C03AB0336567600680402CB4703
:10024000A202180400058BC1010C04000000000389
:100250007F060CC92C979797038903264666006C86
:1002600002200002400400000000024404000000DC
:100270000002480400000000024C040000000002DC
:100280005004000000000254040000000002580462
:1002900000000000025C040000000002BC0400003A
:1002A000000001EC0400004000037F060CC92C97FD
:1002B00097970402030D355D040904872D353D0031
:1002C000A3010000000001078601FE074105F1209F
:1002D000283038077E01300746019A074704F12885
:1002E0003038076C04F12830380216020001FB0098
:1002F000003E000B00360001000200030000006514
:100300000054FFEF0000FA80000B1282000100028F
:1003100000000000000000000000000000000028B5
:100320000000FFFF4581FFFFFA720000000000009F
:1003300003E80000000100017FFFFFFE8001001BB9
:100340000000000000000000000000000000003E6F
:1003500003304000000002CAE3093E800000200094
:10036000000000000000400000006000000041FFAD
:10037000000000000B2A0000165500002182FD87B6
:100380002650FD800000001F0000000580000000D6
:100390000000000100000002000000030000400017
:1003A00000000000046F0002653200005EC04000E3
:1003B0000000000000000000000000000000FB8CB6
:1003C0006F5DFD5D08D9007C733B006C12CC320080
:1003D000139D3200D0D632000800400001F4FFE641
:1003E0008079020000000000D0D600002710FB003A
:1003F00000004000000000000000000000000000BD
:1004000000010000000000000100010000000000E9
:10041000FA36FFBC308E0005FBF0FFD95BC8FFD079
:100420009ABE000010A9FFF41EB200CEBBF7000078
:10043000000100000004000200020200000CFFC2E4
:1004400080000001800000CF80004000000000001C
:100450000001000000000000060000000014000081
:10046000000000000000000000000000000000008C
:10047000000000000000000000000000000000007C
:10048000000000000000000000000000000000006C
:100490000000033F68B6793528BCC67ED16C800069
:1004A0000000400000000000B26A000000000000F0
:1004B00000000000000000003FF0000000300000DD
:1004C000000000000000000000000000000000002C
:1004D000000000000000000000000000000000001C
:1004E000254D002F706D000005AE000C02D00000FD
:1004F000000000650054FFEF000000000000000055
:1005000001000044000000000C0000000100000099
:1005100000000065000000540000FFEF0000000034
:10052000000000000000000000000000000040008B
:10053000000000000000000000000000000040007B
:1005400000000000000000000000000000000000AB
:100550000001000000020000000000000000000098
:10056000000000000000000000000000000000008B
:100570000000000000000000000000000000001B60
:10058000000000000000000000000000000000006B
:10059000000000000000000000000000000000005B
:1005A0000000000000000000000040000000001BF0
:1005B000000000000000000000000000000000003B
:1005C000000000000000000000000000000000002B
:1005D000000000000000000000000000000000001B
:1005E0000000000000000000000000000000D8DC57
:1005F000BAA2F1DEB2B8B4A88191F74A907F916AAD
:10060000F3F9DBA8F9B0BAA080F2CE81F3C2F1C150
:10061000F2C3F3CCA2B280F1C6D880BAA7DFDFDF85
:10062000F2A7C3CBC5B6F087A2942448703C95408E
:100630006834589B78A2F183922D557DD8B1B4B817
:10064000A1D09180F270F370F27C80A8F101B09893
:1006500087D943D886C988BAA1F20EB89780F1A984
:10066000DFDFDFAADFDFDFF2AAC5CDC7A90CC92C07
:1006700097979797F1A989264666B0B4BA80ACDE01
:10068000F2CAF1B28C02A9B69800890E161EB8A95A
:10069000B4992C547CB08AA896365676F1B9AFB48A
:1006A000B083C0B8A89711B18F98B9AFF0240844AF
:1006B000106418F1A329557DAF83B593AFF00028DE
:1006C00050F1A3869F61A6DADEDFD9FAA38696DB16
:1006D00031A6D9F8DFBAA68FC2C5C7B28CC1B8A2FD
:1006E000DFDFDFA3DFDFDFD8D8F1B8A8B286B498A8
:1006F0000D355DB8AA98B0872D353DB2B6BAAF8C2E
:1007000096198F9FA70E161EB49AB8AA872C547CF0
:10071000B9A3DEDFDFA3B180F2C4CDC9F1B8A9B4BB
:1007200099830D355D89B9A32D557DB593A30E161B
:100730001EA92C547CB8B4B0F19783A81184A509E4
:1007400098A383F0DA240844106418D8F1A5295539
:100750007DA58595021A2E3A565A4048F9F3A3D939
:10076000F8F098832408441064189782A8F111F0D7
:1007700098A2240844106418DAF3DED883A5940103
:10078000D9A302F1A2C3C5C7D8F18492A24DDA2A37
:10079000D84869D92AD86855DA32D85071D932D8B0
:1007A000705DDA3AD85879D93AD87893A34DDA2AD5
:1007B000D84869D92AD86855DA32D85071D932D890
:1007C000705DDA3AD85879D93AD878A88A9AF02858
:1007D00050789EF38818F19F1D98A8D908D8C89F13
:1007E000129EF315A8DA1210D8F1AFC8978734B566
:1007F000B994A421F3D922D8F22DF3D92AD8F2350D
:10080000F3D932D881A4606061D961D86C6869D9A4
:1008100069D8747071D971D8B1A384193D5DA3836F
:100820001A3E5E931030811011B8B0AF8F94F2DA97
:100830003ED8B49AA88729DAF8D8879A35DAF8D852
:10084000879A3DDAF8D8B1B9A49885022E56A581C9
:10085000000C14A397B08AF12DD928D84DD948D8C7
:100860006DD968D8B1840DDA0ED8A32983DA2C0E9D
:10087000D8A3844983DA2C4C0ED8B8B0A88A9AF54C
:1008800020AADADFD8A840AAD0DADED8A860AADA8F
:10089000D0DFD8F19786A8319B069907AB972888B7
:1008A0009BF00C201440B8B0B4A88C9CF0042851E4
:1008B000791D301438B282ABD0982C505078789B88
:1008C000F11AB0F08A9CA82951798B2951798A2490
:1008D00070598B2058718A4469388B3940688A6412
:1008E00048318B304960A588200971584468113916
:1008F00064493019F1AC002C547CF08CA8042850C9
:1009000078F1889726A85998AC8C02264666F0891B
:100910009CA8295179247059446938644831A988C0
:1009200009205970AB11384069A8193148608CA86A
:100930003C415C207C00F187981986A86E767EA9E0
:1009400099882D557D9EB9A38A228A6E8A568A5E21
:100950009FB183062646660E2E4E6E9DB8AD002CC6
:10096000547CF2B18CB499B9A32D557D8191AC38EA
:10097000AD3AB58391AC2DD928D84DD948D86DD989
:1009800068D88C9DAE29D904AED851D904AED87997
:10099000D904D881F39DAD008DAE1981ADD901D8B0
:1009A000F2AEDA26D88E912983A7D9ADADADADF3DD
:1009B0002AD8D8F1B0AC89913E5E76F3AC2E2EF1F8
:1009C000B18C5A9CAC2C2828289CAC3018A8988153
:1009D00028343C9724A728343C9C24F2B089AC915D
:1009E0002C4C6C8A9B2DD9D8D851D9D8D879D9D844
:1009F000D8F19E88A331DAD8D8912DD928D84DD9ED
:100A000048D86DD968D8B18393353D8025DAD8D8D8
:100A10008569DAD8D8B49381A328343CF3AB8BF83A
:100A2000A391B609B4D9ABDEFAB0879CB9A3DDF1C6
:100A3000A3A3A3A395F1A3A3A39DF1A3A3A3A3F2AF
:100A4000A3B49080F2A3A3A3A3A3A3A3A3A3A3B23D
:100A5000A3A3A3A3A3A3B087B599F1A3A3A398F1DC
:100A6000A3A3A3A397A3A3A3A3F39BA3A3DCB9A7C7
:100A7000F1262626D8D8FF00000008000201000059
:100A80000304070000000000000000010204081039
:100A900020408001020408102001020408102004F4
:100AA0000404040404040402020202020203030315
:100AB00003030300000000250028002B00000000B5
:100AC00000240027002A0000590BF113011F1124F4
:100AD0001FBECFEFD8E0DEBFCDBF11E0A0E0B1E098
:100AE000E8E0FFE402C005900D92AC34B107D9F7FD
:100AF00024E0ACE4B1E001C01D92AD30B207E1F7F3
:100B00001AE0CEECDAE004C02297FE010E94312503
:100B1000C83CD107C9F70E94B0210C9482270C94DD
:100B200000008F929F92AF92BF92CF92EF920F935D
:100B30001F93CF93DF93CDB7DEB7C059D1090FB65E
:100B4000F894DEBF0FBECDBF5C010E948A186EE133
:100B500070E080E090E00E945F1C60E0C5010E94B0
:100B6000911821E041E060E1C5010E94AD1966E005
:100B7000C5010E94B81920E040E060E0C5010E9474
:100B8000AD19C5010E941219182FC5010E9439190B
:100B9000882EC5010E946019982E4FE760E0C501BC
:100BA0000E944A1860E0C5010E94751848E660E09E
:100BB000C5010E944A18C5010E94831864E170E0D3
:100BC00080E090E00E945F1CEE24E39400E020E0CF
:100BD00049E857E06EEE72E0C5010E940C1B8823C5
:100BE00009F408C240EC50E06EE272E0C5010E94D8
:100BF000D71B882309F400C263E0C5010E9498183E
:100C000062E1C5010E94561864E0C5010E94001807
:100C100061E0C5010E94061863E0C5010E94111839
:100C200063E0C5010E941C1863E0C5010E94DA1B45
:100C300060E0C5010E94E01B60E0C5010E940B1945
:100C4000612FC5010E942E19682DC5010E945519FA
:100C5000692DC5010E947C19812C912CF401E15071
:100C6000FE4FE491A1E8B0E0AC0FBD1FA80DB11D8F
:100C7000EC9381E0880D9FEF891A990AE3E0E8156B
:100C800068F7CD57DF4F4881C358D04050E09A01F4
:100C90002E5F3F4F90E02817390704F7C12CEE2450
:100CA000E394CE57DF4F0881C258D040CF57DF4F73
:100CB0002881C158D04061E870E06C0F7D1F6D5FE6
:100CC0007F4FC5010E94281A60E0F401E150FE4FF9
:100CD000E491A1E8B0E0AC0FBD1FA60FB11DEC93ED
:100CE0006F5FFFEF8F1A9F0A643078F3CD57DF4FA5
:100CF0004881C358D04050E09A012E5F3F4F862F65
:100D000090E0281739070CF7C12CEE24E394CE5756
:100D1000DF4F0881C258D040CF57DF4F2881C158DC
:100D2000D04061E870E06C0F7D1F6D5F7F4FC501A3
:100D30000E94281AC5010E947C18C5010E94B7189C
:100D4000482FBE016F5F7F4FC5010E94D31862E03C
:100D5000C5010E9432186CE9C5010E943E1860E589
:100D6000C5010E94381860E0C5010E944418C50101
:100D70000E947C1861E0C5010E946E1861E0C50107
:100D80000E949F19C5010E94A61960E0F401E1507C
:100D9000FE4FE491A1E8B0E0AC0FBD1FA60FB11D5E
:100DA000EC936F5F8FEF881A980A643078F3CD5711
:100DB000DF4F4881C358D04050E09A012E5F3F4F2B
:100DC000862F90E0281739070CF7C12CEE24E39406
:100DD000CE57DF4F0881C258D040CF57DF4F288110
:100DE000C158D04061E870E06C0F7D1F6D5F7F4F90
:100DF000C5010E94281A60E0F401E150FE4FE49121
:100E0000A1E8B0E0AC0FBD1FA60FB11DEC936F5F62
:100E10009FEF891A990A643078F3CD57DF4F4881E4
:100E2000C358D04050E09A012E5F3F4F862F90E08C
:100E3000281739070CF7C12CEE24E394CE57DF4F67
:100E40000881C258D040CF57DF4F2881C158D040C9
:100E500061E870E06C0F7D1F6D5F7F4FC5010E94E0
:100E6000281A60E0F401E150FE4FE491A1E8B0E0FF
:100E7000AC0FBD1FA60FB11DEC936F5FEFEF8E1A85
:100E80009E0A643078F3CD57DF4F4881C358D04075
:100E900050E09A012E5F3F4F862F90E028173907C8
:100EA0000CF7C12CEE24E394CE57DF4F0881C258D3
:100EB000D040CF57DF4F2881C158D04061E870E063
:100EC0006C0F7D1F6D5F7F4FC5010E94281AC50101
:100ED0000E94B71883309105D0F3482FBE016F5F91
:100EE0007F4FC5010E94D31860E0F401E150FE4F2E
:100EF000E491A1E8B0E0AC0FBD1FA60FB11DEC93CB
:100F00006F5FFFEF8F1A9F0A643078F3CD57DF4F82
:100F10004881C358D04050E09A012E5F3F4F862F42
:100F200090E0281739070CF7CE57DF4F0881C258D9
:100F3000D040CF57DF4F2881C158D04061E870E0E2
:100F40006C0F7D1F6D5F7F4FC5010E94BE19C501EB
:100F50000E94B71883309105D0F3482FBE016F5F10
:100F60007F4FC5010E94D318F401E150FE4F60E0AD
:100F70008491A1E8B0E0AC0FBD1FA60FB11D8C930A
:100F80006F5F643010F43196F3CFCD57DF4F488157
:100F9000C358D04050E09A012E5F3F4F862F90E01B
:100FA0002817390784F761E870E06C0F7D1F6D5FCB
:100FB0007F4FC12CEE24E394CE57DF4F0881C258F7
:100FC000D040CF57DF4F2881C158D040C5010E9483
:100FD000281A60E0C5010E949F198AE290E0F5019D
:100FE00093838283C5010E947C18C5010E945C180E
:100FF00080E003C081E001C082E0C057DF4F0FB640
:10100000F894DEBF0FBECDBFDF91CF911F910F913E
:10101000EF90CF90BF90AF909F908F900895CF9317
:10102000DF93DB01FA01309719F4EC01E881F981D3
:10103000808190E0982F88272181822B11969C93A4
:101040008E93848190E0982F88272581822B139698
:101050009C938E931297808590E0982F8827218506
:10106000822B15969C938E931497848590E0982FED
:1010700088272585822B17969C938E93169780E060
:10108000DF91CF910895FF920F931F93CF93DF933A
:10109000CDB7DEB728970FB6F894DEBF0FBECDBF31
:1010A0008B01BE016F5F7F4F0E940F08F82E8111E8
:1010B0004CC069817A81882777FD8095982F0E949E
:1010C000262320E030E040E858E30E940624F8019F
:1010D00060837183828393836B817C81882777FD12
:1010E0008095982F0E94262320E030E040E858E3C6
:1010F0000E940624F80164837583868397836D813B
:101100007E81882777FD8095982F0E94262320E0F6
:1011100030E040E858E30E940624F80160877187B8
:10112000828793876F817885882777FD8095982FB0
:101130000E94262320E030E040E858E30E94062485
:10114000F80164877587868797878F2D28960FB655
:10115000F894DEBF0FBECDBFDF91CF911F910F91ED
:10116000FF9008954F925F926F927F928F929F921D
:10117000AF92BF92CF92DF92EF92FF920F931F93A5
:10118000CF93DF93CDB7DEB728970FB6F894DEBFC5
:101190000FBECDBF8B01DA011496CD90DD90ED909E
:1011A000FC9017971C964D905D906D907C901F97CA
:1011B0008D909D90AD90BC90139718968D919D91B8
:1011C0000D90BC91A02D89839A83AB83BC83A3012E
:1011D0009201C701B6010E9406246D837E838F832E
:1011E000988729813A814B815C81C501B4010E94B5
:1011F00006249B01AC016D817E818F8198850E94C0
:10120000C0219B01AC010E94C121F8016083718360
:1012100082839383A7019601C501B4010E9406242D
:101220006D837E838F839887A301920169817A8180
:101230008B819C810E9406249B01AC016D817E8183
:101240008F8198850E94C1219B01AC010E94C12120
:10125000D80114966D937D938D939C931797A50158
:101260009401C501B4010E9406244B015C01A70151
:101270009601C701B6010E9406249B01AC01C5017D
:10128000B4010E94C0216B017C0129813A814B810C
:101290005C81CA01B9010E9406249B01AC01C7010F
:1012A000B6010E94C0216B017C01A3019201C30120
:1012B000B2010E9406249B01AC01C701B6010E9445
:1012C000C121F801608771878287938780E0289623
:1012D0000FB6F894DEBF0FBECDBFDF91CF911F9147
:1012E0000F91FF90EF90DF90CF90BF90AF909F90C5
:1012F0008F907F906F905F904F9008952F923F92C4
:101300004F925F926F927F928F929F92AF92BF9215
:10131000CF92DF92EF92FF920F931F93CF93DF93C1
:1013200000D000D000D0CDB7DEB71B018A013E83CC
:101330002D83FA01C080D180E280F380A70196015D
:10134000C701B6010E94C12169837A838B839C8384
:10135000F80184809580A680B780A5019401C5011D
:10136000B4010E94C1212B013C01A70196016981B2
:101370007A818B819C810E9406246B017C01A501EE
:101380009401C301B2010E9406249B01AC01C70174
:10139000B6010E94C12120E030E040E85FE30E94F6
:1013A000C0216B017C01F801208531854285538580
:1013B000C301B2010E9406242B013C01F8012485DF
:1013C00035854685578569817A818B819C810E940C
:1013D00006249B01AC01C301B2010E94C021A701F8
:1013E00096010E943422F10160837183828393838A
:1013F000ED81FE816481758186819781C084D1846D
:10140000E284F3849B01AC010E9406244B015C0141
:10141000A7019601C701B6010E9406249B01AC01F9
:10142000C501B4010E94C1210E946D249B01AC0141
:10143000ED81FE8160817181828193810E948B2286
:101440000E945F22F1016483758386839783ED8117
:10145000FE816081718182819381C084D184E28424
:10146000F3849B01AC010E9406244B015C01A7019F
:101470009601C701B6010E9406249B01AC01C5017B
:10148000B4010E94C1210E946D249B01AC01ED8139
:10149000FE8164817581868197810E948B220E94E2
:1014A0005F22F101608771878287938780E02696AB
:1014B0000FB6F894DEBF0FBECDBFDF91CF911F9165
:1014C0000F91FF90EF90DF90CF90BF90AF909F90E3
:1014D0008F907F906F905F904F903F902F900895E6
:1014E0004091DD015091DE016091DF017091E001DA
:1014F00022E030E08CE693E00E94662168E171E032
:101500008CE693E00E94A51F4091D1015091D20139
:101510006091D3017091D40122E030E08CE693E039
:101520000E9466218CE693E00C94AE1F80916902C4
:10153000811101C00895209163023091640280916D
:101540006502909166022817390748F48AE692E00E
:101550000E94B7189093640280936302ECCF1092BC
:101560004C018AE692E00E945C18809368028AE649
:1015700092E00E94B71890936402809363022091D6
:10158000680224FD03C08115944051F48AE692E07C
:101590000E947C1866E970E08CE693E00C94B21F20
:1015A00021FF089540916502509166028091630287
:1015B000909164028417950748F48AE692E00E94AD
:1015C000B7189093640280936302ECCF63E272E0F9
:1015D0008AE692E00E94D31880916302909164029F
:1015E0002091650230916602821B930B90936402F6
:1015F0008093630243E252E063E172E08AE692E0A4
:101600000E94430843E152E065EF71E08AE692E010
:101610000E94B20825EF31E043E152E069EE71E04B
:101620008AE692E00E947E0920E030E044E353E441
:101630006091E9017091EA018091EB019091EC01D8
:101640000E9406242BED3FE049E450E40E948B22E7
:101650006093DD017093DE018093DF019093E001E0
:1016600020E030E044E353E46091F1017091F20135
:101670008091F3019091F4010E9406242BED3FE04C
:1016800049E450E40E948B226093D1017093D2010F
:101690008093D3019093D40108950E94960A84E91F
:1016A00091E00E946E0D8BE591E00E946E0D0C940E
:1016B000700AAF92BF92CF92DF92EF92FF920F9398
:1016C0001F938AE692E00E94FC1780E090E0A0E879
:1016D000BFE38093130290931402A0931502B0937A
:1016E000160210921702109218021092190210920C
:1016F0001A0210921B0210921C0210921D021092EC
:101700001E0210921F0210922002109221021092CB
:10171000220210920E0210920D02109210021092EC
:101720000F021092120210921102109208021092EF
:10173000070210920A021092090210920C021092F3
:101740000B021092020210920102109204021092F7
:10175000030210920602109205021092F5011092F7
:10176000F6011092F7011092F8011092F90110920F
:10177000FA011092FB011092FC011092FD011092EF
:10178000FE011092FF0110920002A0900E01B09095
:101790000F01C0901001D0901101E0901201F09063
:1017A000130100911401109115011F921F92809155
:1017B0000D018F9380910C018F9380910B018F937A
:1017C00080910A018F9321EE31E049ED51E06DEDFA
:1017D00071E084E991E00E945910A0900E01B09050
:1017E0000F01C0901001D0901101E0901201F09013
:1017F000130100911401109115011F921F92809105
:101800000D018F9380910C018F9380910B018F9329
:1018100080910A018F9325ED31E04DEC51E061EDAF
:1018200071E08BE591E00E94591088E591E00E94FB
:10183000C41685E591E00E94C41682E591E00E94FD
:10184000C4168DB79EB70C960FB6F8949EBF0FBE08
:101850008DBF8FE491E01F910F91FF90EF90DF908B
:10186000CF90BF90AF900C94C4160F931F938DE749
:1018700092E00E94631388E18093B80063EE71E008
:101880008CE693E00E94B21F8AE692E00E94A318C1
:1018900065EC71E08CE693E00E94B21F8AE692E06C
:1018A0000E940319882319F067EA71E002C06DE80D
:1018B00071E08CE693E00E94B21F65E571E08CE672
:1018C00093E00E94B21F8CE693E00E945A1D892B80
:1018D00031F08CE693E00E94731D892BA1F78CE612
:1018E00093E00E945A1D892BD1F38CE693E00E946D
:1018F0005A1D892B31F08CE693E00E94731D892BD1
:10190000A1F761E471E08CE693E00E94B21F8AE6E1
:1019100092E00E949105809367026CED70E08AE688
:1019200092E00E948D196CE470E08AE692E00E94D9
:1019300093196BEA7FEF8AE692E00E9499196CEFA7
:1019400076E08AE692E00E94871980916702811111
:1019500029C061E371E08CE693E00E94B21F61E070
:101960008AE692E00E949F1962EF70E08CE693E0B5
:101970000E94B21F8AE692E00E945C18809368027F
:1019800068EC70E08CE693E00E94B21F81E08093E7
:10199000690280916C0290916D029093660280932F
:1019A000650214C067EA70E08CE693E00E94821F33
:1019B0004AE050E0609167028CE693E00E94742058
:1019C00065EA70E08CE693E00E94B21F26E040E0FA
:1019D00052EC61E070E08CE693E00E943D1E6AE00C
:1019E00070E088E591E00E945E176BE070E085E5AD
:1019F00091E00E945E1765E070E082E591E00E9450
:101A00005E1766E070E08FE491E00E945E1760E58B
:101A100070E088E591E00E94971760E570E085E549
:101A200091E00E94971760E570E082E591E00E94E6
:101A3000971760E570E08FE491E00E94971783E0CC
:101A400090E090934E0180934D010E94960A61E0D0
:101A500070E084E991E00E94071061E070E08BE59E
:101A600091E00E94071000E010E020EF32E440E037
:101A700050E060E272E484E991E00E94410F00E0EE
:101A800010E020EF32E440E050E060E272E48BE5E9
:101A900091E00E94410F1092E1011092E201109238
:101AA000E3011092E40180E090E0A4EBB2E48093C3
:101AB000D5019093D601A093D701B093D8010E948D
:101AC000301C0E9424236093E5017093E60180930B
:101AD000E7019093E8011F910F9108952F923F9293
:101AE0004F925F926F927F928F929F92AF92BF922E
:101AF000CF92DF92EF92FF920F931F93CF93DF93DA
:101B0000CDB7DEB72B970FB6F894DEBF0FBECDBFB3
:101B10009B878A87DC01D896BC91B983B11102C03A
:101B20001982E2C00E94301C6A837B838C839D8370
:101B3000EA85FB8580A191A1A2A1B3A14A815B8125
:101B40006C817D81481B590B6A0B7B0B84A595A585
:101B5000A6A5B7A5481759076A077B0708F3028CA3
:101B6000F38DE02D80809180A280B380AA85BB8513
:101B70005E96ED91FC915F97A50194016081718162
:101B8000828193810E94C0212B013C01EA85FB8563
:101B900020893189428953890E940624AA85BB8500
:101BA00094962D913D914D915C9197970E94C12102
:101BB0006B017C01EA85FB8564A375A386A397A3CB
:101BC00024A835A806A917A99101A8010E94FB2302
:101BD00018161CF4C101D80118C0AA85BB85D0967F
:101BE0008D919D910D90BC91A02D8E839F83A88790
:101BF000B9879C01AD01C701B6010E94872287FF0A
:101C00000AC08E819F81A885B985EA85FB8584A35A
:101C100095A3A6A3B7A3AA85BB851C962D913D913C
:101C20004D915C911F97C301B2010E940624EA8581
:101C3000FB8524A135A146A157A10E94C1216B01BA
:101C40007C01AA85BB8598962D913D914D915C9123
:101C50009B97C501B4010E94C021EA85FB852489B8
:101C60003589468957890E9406249B01AC01C7012A
:101C7000B6010E94C0216B017C019101A8010E9464
:101C8000FB231816BCF0AA85BB85D0962C90D09764
:101C9000D1963C90D197D2960C91D297D3961C9125
:101CA0009101A801B601C7010E94872287FD02C0E9
:101CB00016018701AA85BB855C96ED91FC915D9725
:101CC000C101D80180839183A283B383EA85FB8518
:101CD00080A691A6A2A6B3A68A819B81AC81BD8174
:101CE00080A391A3A2A3B3A389812B960FB6F894E6
:101CF000DEBF0FBECDBFDF91CF911F910F91FF903F
:101D0000EF90DF90CF90BF90AF909F908F907F909B
:101D10006F905F904F903F902F9008952F923F9239
:101D20004F925F926F927F928F929F92AF92BF92EB
:101D3000CF92DF92EF92FF920F931F93CF93DF9397
:101D400000D000D0CDB7DEB71C012A013B0148010D
:101D5000590120E030E0A901C301B2010E948722AD
:101D600087FD78C020E030E0A901C501B4010E94E0
:101D7000872287FD6FC020E030E0A901C701B601CE
:101D80000E94872287FD66C0F101408251826282F3
:101D9000738284829582A682B782C086D186E286CB
:101DA000F38664A575A586A597A50E94242320E047
:101DB00030E04AE754E40E948B2269837A838B8364
:101DC0009C83F10144865586668677869B01AC012B
:101DD000C501B4010E9406244B015C01F101608B36
:101DE000718B828B938B29813A814B815C81C701F6
:101DF000B6010E948B226B017C01F101648B758B13
:101E0000868B978B808D918D019721F5A30192018F
:101E100060E070E0CB010E94C021F101648775870A
:101E200086879787A501940160E070E0CB010E944E
:101E3000C021F101608B718B828B938BA70196017E
:101E400060E070E0CB010E94C021F101648B758BD2
:101E5000868B978B0F900F900F900F90DF91CF9103
:101E60001F910F91FF90EF90DF90CF90BF90AF90B8
:101E70009F908F907F906F905F904F903F902F90AA
:101E800008952F923F924F925F926F927F928F921E
:101E90009F92AF92BF92CF92DF92EF92FF920F93F9
:101EA0001F93CF93DF93EC016A017B014801590135
:101EB000A9019801C701B6010E94FB2387FF4EC00C
:101EC000C8AAD9AAEAAAFBAA8CAA9DAAAEAABFAAA6
:101ED00088AD882309F442C02C8C3D8CF1014080F0
:101EE000518062807380A5019401C301B2010E94F8
:101EF000FB23181634F4F10180829182A282B3820E
:101F00000DC0A7019601C301B2010E94872287FF7D
:101F100005C0F101C082D182E282F3828CA09DA033
:101F2000AEA0BFA0CCA8DDA8EEA8FFA8A70196018F
:101F3000C501B4010E94FB23181664F0C8A8D9A8F3
:101F4000EAA8FBA8A7019601C501B4010E94872257
:101F500087FF04C0CCA2DDA2EEA2FFA2DF91CF9149
:101F60001F910F91FF90EF90DF90CF90BF90AF90B7
:101F70009F908F907F906F905F904F903F902F90A9
:101F800008958F929F92AF92BF92CF92DF92EF927D
:101F9000FF92CF93DF93EC01EC8DFD8DC080D1805B
:101FA000E280F380CCA2DDA2EEA2FFA2EA8DFB8D3F
:101FB00080819181A281B38188A799A7AAA7BBA795
:101FC0008CA89DA8AEA8BFA8A5019401C701B60121
:101FD0000E94FB23181664F088A899A8AAA8BBA899
:101FE000A5019401C701B6010E94872287FF04C0A2
:101FF0008CA29DA2AEA2BFA2DF91CF91FF90EF90E5
:10200000DF90CF90BF90AF909F908F9008951F93D7
:10201000CF93DF93EC0111E06130710509F010E01E
:1020200088AD91E08927181303C0CE010E94C10F2B
:1020300018AFDF91CF911F9108950F931F93CF9306
:10204000DF93EC018B0188AD882361F1888D998D38
:102050006817790739F12C853D854E855F8560E0ED
:1020600070E0CB010E94C0216C877D878E879F879F
:10207000288939894A895B8960E070E0CB010E9438
:10208000C021688B798B8A8B9B8B2C893D894E89EB
:102090005F8960E070E0CB010E94C0216C8B7D8B7A
:1020A0008E8B9F8B198F088FDF91CF911F910F918E
:1020B00008954F925F926F927F928F929F92AF920C
:1020C000BF92CF92DF92EF92FF920F931F93CF9325
:1020D000DF9300D000D0CDB7DEB74C012701380127
:1020E000A982BA82CB82DC82FC01558F448F738F28
:1020F000628F378F268F10AE10AA11AA12AA13AAC8
:1021000080E090E0AFE7B3E484AB95ABA6ABB7ABB0
:1021100084E690E0A0E0B0E084A795A7A6A7B7A7C3
:102120006B8D7C8DC4010E941D10CF88D88CE98CEA
:10213000FA8C09811A812B813C81B301A201C4016F
:102140000E948E0E0E94301CF40144A455A466A483
:1021500077A4641975098609970960A371A382A3FE
:1021600093A30F900F900F900F90DF91CF911F913D
:102170000F91FF90EF90DF90CF90BF90AF909F9026
:102180008F907F906F905F904F900895EF92FF92A5
:102190000F931F93CF93DF9300D0CDB7DEB7062FF9
:1021A000142F682F8DE792E029833A830E946D13E4
:1021B000602F8DE792E00E9424132981022FE22EE6
:1021C0003A81F32E8E2D801B811740F4F701619127
:1021D0007F018DE792E00E942413F4CF8DE792E017
:1021E0000E94EE1391E0811190E0892F0F900F90E3
:1021F000DF91CF911F910F91FF90EF900895CF93B2
:10220000DF931F92CDB7DEB749839E012F5F3F4F0B
:1022100041E00E94C6100F90DF91CF910895DF92A8
:10222000EF92FF920F931F93CF93DF93C62F042F4C
:102230007901682F8DE792E00E946D136C2F8DE776
:1022400092E00E94241310E0000F111FD12CCD2D1D
:10225000D0E0C017D1078CF4CC0FDD1FCE0DDF1DF1
:1022600069818DE792E00E94241368818DE792E0F6
:102270000E942413D394D394EACF8DE792E00E9476
:10228000EE1391E0811190E0892FDF91CF911F91A2
:102290000F91FF90EF90DF900895CF93DF9300D0E0
:1022A000CDB7DEB75A8349839E012F5F3F4F41E090
:1022B0000E940F110F900F90DF91CF9108953F92E0
:1022C0004F925F926F927F928F929F92AF92BF9246
:1022D000CF92DF92EF92FF920F931F93CF93DF93F2
:1022E00000D000D000D0CDB7DEB7682E562E742EA9
:1022F0003A8329830E94301C6B017C01312C412CD4
:10230000872D90E09C838B834801A12CB12C37143E
:10231000B0F5662D8DE792E00E946D13652D8DE777
:1023200092E00E9424138DE792E00E94EE13662D46
:102330008DE792E00E946D134B815C814319510936
:102340004132510514F040E250E0662D8DE792E0F5
:102350000E94EB138DE792E00E94CC12892B59F179
:102360000115110579F10E94301C6C197D098E0947
:102370009F09681579058A059B0520F11CC0011588
:10238000110589F10E94301C6C197D098E099F0985
:1023900020E030E0601771078207930720F1872D56
:1023A00090E0242D332727FD309528173907DCF4DA
:1023B00044244A9418C0872D90E2971508F480E2CF
:1023C000380EA5CFE981FA81E40DF11D47FCFA959D
:1023D000FE83ED838DE792E00E94D412ED81FE81B1
:1023E00080834394B7CF842D26960FB6F894DEBF32
:1023F0000FBECDBFDF91CF911F910F91FF90EF9056
:10240000DF90CF90BF90AF909F908F907F906F9014
:102410005F904F903F9008950F931F9389019A0109
:1024200041E00E945F111F910F910895CF92DF92BA
:10243000EF92FF920F931F93CF93DF931F92CDB72D
:10244000DEB7C42ED22E9701AE014F5F5F4F0E94C0
:102450000C128823F1F04C2D50E04D1951094F5FBB
:102460005F4F61E070E002C0660F771FDA94E2F719
:1024700061507109042E01C0660F0A94EAF72981A0
:10248000262330E002C0359527954A95E2F7F801FA
:1024900020830F90DF91CF911F910F91FF90EF90CC
:1024A000DF90CF900895EF92FF920F931F93CF93F9
:1024B000DF931F92CDB7DEB7182F062FF42EE22E32
:1024C0002091160130911701AE014F5F5F4F0E94BE
:1024D0000C12898121E030E00F2C01C0220F0A94F8
:1024E000EAF7EE2019F0482F422B03C0422F409507
:1024F00048234983602F812F0E94FF100F90DF91A6
:10250000CF911F910F91FF90EF900895DF92EF927E
:10251000FF920F931F93CF93DF931F92CDB7DEB738
:10252000F82EE62ED42E122F20911601309117018D
:10253000AE014F5F5F4F0E940C12882319F14D2DA1
:1025400050E0411B51094F5F5F4FE1E0F0E002C0F6
:10255000EE0FFF1F1A95E2F73197042E01C0EE0F20
:102560000A94EAF701C0000F4A95EAF74E2F40950A
:1025700089814823E0234E2B49836E2D8F2D0E94A5
:10258000FF1001C080E00F90DF91CF911F910F915C
:10259000FF90EF90DF9008958091AD0290E0209140
:1025A000AE02821B910908952091AE028091AD0286
:1025B000281750F4E22FF0E0E155FD4F808190E0C4
:1025C0002F5F2093AE0208958FEF9FEF0895E09163
:1025D000AE028091AD02E81730F4F0E0E155FD4F16
:1025E000808190E008958FEF9FEF08950895CF9236
:1025F000DF92EF92FF920F931F93CF93DF937C01B3
:10260000CB018A0120918902222389F0EB016B0121
:10261000C40ED51ECC15DD0569F06991D701ED9189
:10262000FC910190F081E02DC7010995F3CF642F53
:102630000E94B214C801DF91CF911F910F91FF90BA
:10264000EF90DF90CF900895CF93DF931F92CDB797
:10265000DEB76983209189022223D1F020918A027A
:10266000203240F021E030E0FC013383228380E01F
:1026700090E015C080918B02E82FF0E0E457FD4F09
:10268000998190838F5F80938B0280938A0205C02B
:1026900061E0CE0101960E94B21481E090E00F90BB
:1026A000DF91CF910895FC011382128248EE53E02E
:1026B00060E070E044835583668377838EE191E028
:1026C0009183808308951092AE021092AD02109211
:1026D0008B0210928A020C94F51381E08093890298
:1026E0006093AC0210928B0210928A0208950F93AD
:1026F000062F21E040918A026CE872E08091AC02E2
:102700000E945B1410928B0210928A02109289022E
:102710000F9108958F929F92AF92BF92CF92DF92C6
:10272000EF92FF920F931F93CF93DF93EC01F62E5E
:10273000D42E48015901EE2019F10E946D131E2D6F
:10274000143008F013E01150B8F0E881F98128E066
:10275000129FB0011124A501940104C0569547951C
:10276000379527956A95D2F7CA01B9010190F08192
:10277000E02DCE010995E7CF60E0CE010E947713EE
:102780004D2D413208F040E22C2D6FEA72E08F2D82
:102790000E9413141092AE028093AD02DF91CF918C
:1027A0001F910F91FF90EF90DF90CF90BF90AF906F
:1027B0009F908F900895CF92EF920F931F93C22E08
:1027C000E12C00E010E098010E948A131F910F9104
:1027D000EF90CF90089521E00C94DB1361E00C940E
:1027E00077138DE792E00C94531310923C0381E031
:1027F00080933A031092390361E082E10E94241D24
:1028000061E083E10E94241DE9EBF0E080818E7F8E
:10281000808380818D7F808388E48093B80085E405
:102820008093BC000895413208F043C090913C036E
:102830009111FCCF91E090933C0320933A032FEF4A
:102840002093CF0210921403240F2093130390932C
:102850003B0390913B03880F892B80933B0380912E
:102860003903813061F41092390380913B038093E6
:10287000BB008091BC0083FDF8CF85EC01C085EEE4
:102880008093BC0080913C038130E1F3809114037C
:10289000841710F44091140325E133E0FB01D901C2
:1028A0008A2F821B841718F48D918193F9CF842F7E
:1028B000089580E008950F93413208F04AC0909146
:1028C0003C039111FCCF92E090933C0300933A03B8
:1028D0009FEF9093CF021092140340931303FB01D8
:1028E00065E173E0DB019A2F961B941718F4919120
:1028F0009D93F9CF10923B0390913B03880F892B56
:1029000080933B0380913903813061F41092390345
:1029100080913B038093BB008091BC0083FDF8CF86
:1029200085EC01C085EE8093BC00222321F08091CC
:102930003C038230E1F38091CF028F3F61F08091C0
:10294000CF02803251F08091CF02803341F483E096
:1029500007C081E005C080E003C082E001C084E0E0
:102960000F910895613298F420913C03243089F44A
:102970006093F102FC0183EF92E0DC012A2F281B17
:10298000261718F421912D93F9CF80E0089581E066
:10299000089582E0089585ED8093BC008091BC008D
:1029A00084FDFCCF10923C03089585EC8093BC001D
:1029B00010923C0308951F920F920FB60F921124AC
:1029C0002F933F934F935F936F937F938F939F9337
:1029D000AF93BF93EF93FF938091B900887F8036C8
:1029E00009F49EC078F5883209F45DC090F4803116
:1029F00009F456C038F4882309F4F5C0883009F486
:102A00004FC0F5C0883109F44EC0803209F45FC070
:102A1000EEC0803409F46AC058F4803309F457C01A
:102A2000883309F0E4C08093CF020E94D514DFC040
:102A3000803509F44FC0883509F45DC0883409F049
:102A4000D6C0D3C0883909F4C4C0A8F4883709F4C3
:102A500067C038F4883609F463C0803709F460C071
:102A6000C6C0883809F4B5C0803909F45FC0803821
:102A700009F0BDC05BC0803B09F483C038F4803AE4
:102A800009F466C0883A09F47CC0B1C0803C09F4FE
:102A9000A4C0883C09F4A1C0883B09F487C0A7C042
:102AA00080913B0310C090911403809113039817F9
:102AB00070F5E091140381E08E0F80931403F0E031
:102AC000EB5EFC4F80818093BB0085EC83C08093DC
:102AD000CF028BC0E091140381E08E0F809314032A
:102AE0008091BB00F0E0EB5EFC4F8083909114037B
:102AF000809113036BC0E091140381E08E0F8093EB
:102B000014038091BB00F0E0EB5EFC4F808380916A
:102B10003A0381116AC081E08093390384EA5EC080
:102B200083E080933C031092D002CFCF8091D002FB
:102B3000803208F04EC0E091D00281E08E0F809389
:102B4000D0028091BB00F0E0EF52FD4F8083BDCFFB
:102B50000E94D5148091D002803230F4E091D002EE
:102B6000F0E0EF52FD4F10826091D00270E0E091F2
:102B70003503F091360381ED92E009951092D00271
:102B800036C084E080933C031092F2021092F1026E
:102B9000E0913703F091380309958091F10281119A
:102BA00005C081E08093F1021092F302E091F202FD
:102BB00081E08E0F8093F202F0E0ED50FD4F8081B6
:102BC0008093BB009091F2028091F102981708F473
:102BD0007CCF85E88093BC000AC085EC8093BC0064
:102BE00010923C0304C01092CF020E94CB14FF91BC
:102BF000EF91BF91AF919F918F917F916F915F9175
:102C00004F913F912F910F900FBE0F901F901895ED
:102C10001F920F920FB60F9211242F933F934F9351
:102C20005F936F937F938F939F93AF93BF93EF9334
:102C3000FF9380913E0387FF05C01092850010929C
:102C400084001AC020913E03332727FD30958091E0
:102C50003D0390E0281739077CF480913E039927C3
:102C600087FD9095FC01EE0FFF1FE80FF91FE15C57
:102C7000FC4F808186FD15C080913E038F5F80935D
:102C80003E0320913E03332727FD309580913D037D
:102C900090E028173907BCF480913E038C305CF13A
:102CA00012C080913E03992787FD9095FC01EE0F9D
:102CB000FF1FE80FF91FE15CFC4F808160E08F731C
:102CC0000E94241DD9CF80918400909185000496A4
:102CD00080349C4918F480E49CE905C0809184000C
:102CE00090918500049690938900809388008FEFDF
:102CF00080933E0338C020918400309185008091FC
:102D00003E03992787FD9095FC01EE0FFF1FE80F0A
:102D1000F91FE15CFC4F81819281820F931F909398
:102D200089008093880080913E03992787FD9095C4
:102D3000FC01EE0FFF1FE80FF91FE15CFC4F8081E3
:102D400086FF11C080913E03992787FD9095FC0175
:102D5000EE0FFF1FE80FF91FE15CFC4F808161E07F
:102D60008F730E94241DFF91EF91BF91AF919F91AE
:102D70008F917F916F915F914F913F912F910F9024
:102D80000FBE0F901F90189520913D032C30A0F49A
:102D900031E0320F30933D03FC012083822F90E01D
:102DA000FC01EE0FFF1FE80FF91FE15CFC4F88EB01
:102DB0009BE09283818308952FEFFC012083089587
:102DC000DF92EF92FF920F931F93CF93DF93EC016B
:102DD000D62E7A01890188818C3008F066C061E0C6
:102DE0008D2D0E94EB1C8881A82FB0E0FD01EE0F15
:102DF000FF1FEA0FFB1FE15CFC4F2D2D2F7390810D
:102E0000907C922B908360E272E06E197F0977FFCD
:102E100002C06D5F7F4F759567957595679569835E
:102E200040E659E0401B510B57FF02C04D5F5F4F1A
:102E300055954795559547954A836CE00E94D72450
:102E40009CE0899FB001112420E030E0A901460FE9
:102E5000571FFA01EE0FFF1FE40FF51FE15CFC4F57
:102E6000908196FD16C02F5F3F4F2C30310571F7D2
:102E700081110FC01092800082E080938100109237
:102E8000850010928400B19A80916F0082608093D7
:102E90006F00888190E0FC01EE0FFF1FE80FF91F23
:102EA000E15CFC4F8081806480838881DF91CF91D9
:102EB0001F910F91FF90EF90DF90089520E639E089
:102EC00040E252E00C94E016FC0180818C3070F5F9
:102ED000918128E830E0291B310997FD3395220FB5
:102EE000331F220F331F621773077CF0928128E58E
:102EF00032E0291B310997FD3395220F331F220F32
:102F0000331F621773070CF49B0122503109220F03
:102F1000331F4FB7F89490E0FC01EE0FFF1FE80F4E
:102F2000F91FE15CFC4F328321834FBF08954F921C
:102F30005F926F927F92AF92BF92CF92DF92EF92A9
:102F4000FF920F931F93CF93DF93EC01603282E0E7
:102F500078070CF040C077FD06C0653B71052CF08A
:102F600064EB70E002C060E070E0898128E830E046
:102F7000281B310987FD3395220F331F220F331F82
:102F80005901CC24B7FCC094DC2C882777FD8095B0
:102F9000982F2A8148E552E0421B510927FD53959D
:102FA000440F551F440F551F2A01662457FC609497
:102FB000762C7F926F925F924F9214EBE12EF12C60
:102FC00000E010E020E030E0A9010E9468210F90AD
:102FD0000F900F900F90CE01DF91CF911F910F9125
:102FE000FF90EF90DF90CF90BF90AF907F906F9069
:102FF0005F904F900C94641728E6FC01208308959D
:10300000462F69E1FC0180810C94FF100F93062F7D
:1030100023E045E06AE1FC0180810E9486120F9165
:1030200008950F93062F23E042E06AE1FC018081BE
:103030000E9486120F9108950F93062F22E044E01C
:103040006BE1FC0180810E9486120F9108950F931D
:10305000062F22E044E06CE1FC0180810E94861290
:103060000F910895462F6FE1FC0180810C94FF10B1
:10307000462F60E2FC0180810C94FF10462F61E234
:10308000FC0180810C94FF10462F62E2FC018081DC
:103090000C94FF10643048F4262F220F260F2B5D6E
:1030A000622FFC0180810C94FF100895462F68E385
:1030B000FC0180810C94FF10CF93DF93EC012091F1
:1030C000160130911701AC014F5F5F4F6AE38881B1
:1030D0000E940C128981DF91CF910895262F46E03E
:1030E0006AE6FC0180810C945312262F45E06AE6C3
:1030F000FC0180810C94531221E042E06AE6FC015D
:1031000080810C94531221E041E06AE6FC01808149
:103110000C94531221E047E06BE6FC0180810C9493
:103120005312262F46E06BE6FC0180810C9453126B
:103130000F93062F23E042E06BE6FC0180810E94A2
:1031400086120F910895CF93DF93EC0161E00E9406
:10315000981860E0CE010E941C1860E0CE010E9429
:10316000271860E0CE01DF91CF910C9491180F9356
:103170001F93CF93DF93EC0100911601109117017B
:103180009C012F5F3F4F42E062E788810E945F1100
:10319000898190E0982F88272A81822BDF91CF9117
:1031A0001F910F9108950F931F939B01442351F09A
:1031B000009116011091170164E7FC0180810E94C3
:1031C0005F1102C0FB0110821F910F910895EF92D1
:1031D000FF920F931F93CF93DF93EC01E0901601C2
:1031E000F09017018C010F5F1F4F26E046E065E766
:1031F00088810E9416128981DF91CF911F910F91D2
:10320000FF90EF9008950E94E71891E0843309F051
:1032100090E0892F0895262F40E060E0FC01808136
:103220000C945312EF92FF920F931F93CF93DF935F
:10323000EC01E0901601F09017018C010F5F1F4F19
:1032400026E046E060E088810E9416128981DF91C5
:10325000CF911F910F91FF90EF9008950F93062F3C
:1032600026E046E060E0FC0180810E9486120F911A
:103270000895EF92FF920F931F93CF93DF93EC018A
:10328000E0901601F09017018C010F5F1F4F26E0B0
:1032900046E061E088810E9416128981DF91CF911A
:1032A0001F910F91FF90EF9008950F93062F26E046
:1032B00046E061E0FC0180810E9486120F91089532
:1032C000EF92FF920F931F93CF93DF93EC01E09067
:1032D0001601F09017018C010F5F1F4F26E046E0AA
:1032E00062E088810E9416128981DF91CF911F913F
:1032F0000F91FF90EF9008950F93062F26E046E080
:1033000062E0FC0180810E9486120F910895AB015A
:103310006AE0FC0180810C944D11AB0163E1FC017A
:1033200080810C944D11AB0165E1FC0180810C940E
:103330004D11AB0167E1FC0180810C944D11262FEA
:1033400047E06AE6FC0180810C94531221E043E0DF
:103350006AE6FC0180810C9453126F712111606246
:1033600041116064462F6DE6FC0180810C94FF10D2
:10337000462F6EE6FC0180810C94FF105F926F92E5
:103380007F928F929F92AF92BF92CF92DF92EF92F5
:10339000FF920F931F93CF93DF937C015B016A0130
:1033A000622E702E20E040E0662D0E94AD19602F45
:1033B000C7010E94B819C0E0D0E0812C99249394F1
:1033C000CC15DD05A8F5CE014096C816D90618F42F
:1033D0005C2C5C1A02C0A0E15A2E252D30E0C401FD
:1033E000871991098217930714F4572C519400916F
:1033F00016011091170195012C0F3D1F452D6FE609
:10340000F70180810E945F11C50DD11D750CCC158F
:10341000DD05B0F6711001C0639420E040E0662D38
:10342000C7010E94AD19672DC7010E94B819C8CF06
:10343000DF91CF911F910F91FF90EF90DF90CF9090
:10344000BF90AF909F908F907F906F905F90089506
:103450002F923F924F925F926F927F928F929F92A4
:10346000AF92BF92CF92DF92EF92FF920F931F9392
:10347000CF93DF9300D000D01F92CDB7DEB79D83EE
:103480008C837B836A834A01322ED02EE98220E02E
:1034900040E0632D0E94AD19602F8C819D810E94B8
:1034A000B819E980EE2029F080E190E00E944425DF
:1034B0005C01CC2039F080E190E00E944425582E38
:1034C000292E02C0512C212CE12CF12CE814F904F6
:1034D00008F07AC0C70140968816990618F4482C5F
:1034E0004E1802C010E1412E242D30E080E091E022
:1034F0008D1991098217930714F44D2C4194EA8198
:10350000FB81EE0DFF1DCC2059F0852DA52DB22D90
:103510009A2F981B941530F494919D933196F8CF7F
:103520005E2E2F2E252D322D442D6FE6AC81BD81D0
:103530008C910E94C610642C712CB981BB2369F157
:10354000A114B10451F120E040E0632D8C819D81F4
:103550000E94AD196D2D8C819D810E94B81900913A
:103560001601109117019501442D6FE6EC81FD8144
:1035700080810E945F11A301B501852D922D0E94CB
:103580003527892B51F0C5010E94DC25CC2049F15B
:10359000852D922D0E94DC2524C0E60CF71CD40C4E
:1035A000E814F90408F092CFD11001C0339420E060
:1035B00040E0632D8C819D810E94AD196D2D8C8121
:1035C0009D810E94B81982CFF981FF2319F0C501AE
:1035D0000E94DC25CC2039F0852D922D0E94DC251F
:1035E00002C080E001C081E00F900F900F900F901B
:1035F0000F90DF91CF911F910F91FF90EF90DF908F
:10360000CF90BF90AF909F908F907F906F905F9082
:103610004F903F902F900895CF92EF920F93CC242C
:10362000C3940E94281A0F91EF90CF9008952F9283
:103630003F924F925F926F927F928F929F92AF9242
:10364000BF92CF92DF92EF92FF920F931F93CF938F
:10365000DF9300D01F92CDB7DEB74C017B836A8326
:103660003A01D22E222339F088E090E00E944425CE
:10367000182FF92E02C010E0F12C212C312C261429
:10368000370408F051C0EA81FB81E20DF31DC1014E
:1036900003965C01DD20C1F04491F10131968A81ED
:1036A0009B81E80FF91F0491F1013296E80FF91F91
:1036B0005490511044C0F4E02F0E311CEA81FB817C
:1036C000EA0DFB1D84910DC0408101815280EA8189
:1036D000FB81E80FF91F51100DC084E0280E311C4A
:1036E00080818130D1F442E368E3F40180810E945B
:1036F000FF10C5CF1E2FFF2E452C512CC12CEE24C0
:10370000E394242FA201612F7F2DC4010E94281A67
:1037100012012A0C3B1C8111B2CFDD2061F0812FF8
:103720009F2D0E94DC2507C0DD2039F0812F9F2DC1
:103730000E94DC2502C080E024C081E022C0252C4C
:10374000312CF2E0F51548F4B101812F9F2D49830A
:103750000E946B26182FF92E4981812F9F2DA0E002
:10376000B0E02A813B812A0D3B1DA215B30520F64E
:10377000F901EA0FFB1F5491FC015193CF011196FF
:10378000F4CF0F900F900F90DF91CF911F910F9179
:10379000FF90EF90DF90CF90BF90AF909F908F9071
:1037A0007F906F905F904F903F902F90089521E011
:1037B0000C94171B462F60E7FC0180810C94FF10CE
:1037C000462F61E7FC0180810C94FF101F920F923D
:1037D0000FB60F9211242F933F938F939F93AF9324
:1037E000BF938091640390916503A0916603B091AB
:1037F00067033091630323E0230F2D3720F40196F4
:10380000A11DB11D05C026E8230F0296A11DB11D03
:10381000209363038093640390936503A0936603EE
:10382000B09367038091680390916903A0916A0344
:10383000B0916B030196A11DB11D80936803909315
:103840006903A0936A03B0936B03BF91AF919F91FB
:103850008F913F912F910F900FBE0F901F90189551
:103860002FB7F894609164037091650380916603AB
:10387000909167032FBF08953FB7F8948091680334
:1038800090916903A0916A03B0916B0326B5A89B40
:1038900005C02F3F19F00196A11DB11D3FBF66273E
:1038A000782F892F9A2F620F711D811D911D42E083
:1038B000660F771F881F991F4A95D1F70895CF92F9
:1038C000DF92EF92FF92CF93DF936B017C010E9416
:1038D0003C1CEB01C114D104E104F10489F00E9405
:1038E000BF210E943C1C6C1B7D0B683E734090F313
:1038F00081E0C81AD108E108F108C851DC4FEACFCD
:10390000DF91CF91FF90EF90DF90CF900895789462
:1039100084B5826084BD84B5816084BD85B58260D4
:1039200085BD85B5816085BDEEE6F0E08081816072
:103930008083E1E8F0E01082808182608083808172
:1039400081608083E0E8F0E0808181608083E1EB4A
:10395000F0E0808184608083E0EBF0E08081816032
:103960008083EAE7F0E080818460808380818260E8
:1039700080838081816080838081806880831092D1
:10398000C1000895833081F028F4813099F08230AD
:10399000A1F008958730A9F08830B9F08430D1F4CF
:1039A000809180008F7D03C0809180008F7780930D
:1039B0008000089584B58F7702C084B58F7D84BD63
:1039C00008958091B0008F7703C08091B0008F7D03
:1039D0008093B0000895CF93DF9390E0FC01E5570A
:1039E000F54F2491FC01E156F54F8491882349F16C
:1039F00090E0880F991FFC01E354F54FA591B49115
:103A00008D54954FFC01C591D4919FB7611108C0A9
:103A1000F8948C91209582238C93888182230AC00C
:103A2000623051F4F8948C91322F309583238C932B
:103A30008881822B888304C0F8948C91822B8C938C
:103A40009FBFDF91CF9108950F931F93CF93DF9383
:103A50001F92CDB7DEB7282F30E0F901E958F54FB6
:103A60008491F901E557F54F1491F901E156F54FAD
:103A700004910023C9F0882321F069830E94C21CAD
:103A80006981E02FF0E0EE0FFF1FED54F54FA59197
:103A9000B4919FB7F8948C91611103C01095812364
:103AA00001C0812B8C939FBF0F90DF91CF911F910D
:103AB0000F910895FC01818D228D90E0805C9F4FD5
:103AC000821B91098F7399270895FC01918D828D36
:103AD000981731F0828DE80FF11D858D90E00895E3
:103AE0008FEF9FEF0895FC01918D828D981761F003
:103AF000828DDF01A80FB11D5D968C91928D9F5F25
:103B00009F73928F90E008958FEF9FEF089587EF56
:103B10009EE1892B49F080E090E0892B29F00E94FA
:103B2000F71E81110C9400000895FC01848DDF01C3
:103B3000A80FB11DA35ABF4F2C91848D90E0019620
:103B40008F739927848FA689B7892C93A089B1890F
:103B50008C9180648C93938D848D981306C0028819
:103B6000F389E02D80818F7D80830895CF93DF934B
:103B7000EC01888D8823C9F0EA89FB89808185FD65
:103B800005C0A889B9898C9186FD0FC00FB607FCC6
:103B9000F5CF808185FFF2CFA889B9898C9185FF07
:103BA000EDCFCE010E94951DE7CFDF91CF91089513
:103BB000CF92DF92FF920F931F93CF93DF931F92C9
:103BC000CDB7DEB76C0181E0D60158968C9358973B
:103BD0005B969C915B975C968C915C97981307C061
:103BE0005096ED91FC915197808185FD2EC0F60194
:103BF000038D10E00F5F1F4F0F731127F02EF6019A
:103C0000848DF81211C00FB607FCF9CFD60150967B
:103C1000ED91FC915197808185FFF1CFC6016983B9
:103C20000E94951D6981EBCF838DE80FF11DE35A4A
:103C3000FF4F6083D6015B960C935B975296ED9194
:103C4000FC915397808180620CC0D6015696ED910D
:103C5000FC91579760835096ED91FC91519780812C
:103C60008064808381E090E00F90DF91CF911F917D
:103C70000F91FF90DF90CF900895BF92CF92DF9287
:103C8000EF92FF92CF93DF93EC016A017B01B22E9A
:103C9000E889F98982E08083411581EE5807610542
:103CA0007105A1F060E079E08DE390E0A701960155
:103CB0000E94E32421503109410951095695479545
:103CC00037952795211580E1380798F0E889F9891B
:103CD000108260E874E88EE190E0A70196010E94EE
:103CE000E3242150310941095109569547953795EB
:103CF0002795EC85FD853083EE85FF852083188E22
:103D0000EC89FD89B082EA89FB89808180618083AA
:103D1000EA89FB89808188608083EA89FB898081C8
:103D200080688083EA89FB8980818F7D8083DF9131
:103D3000CF91FF90EF90DF90CF90BF9008951F92AA
:103D40000F920FB60F9211242F938F939F93EF939F
:103D5000FF93E0917C03F0917D038081E0918203E9
:103D6000F091830382FD12C09081809185038F5F63
:103D70008F7320918603821751F0E0918503F0E064
:103D8000E459FC4F958F8093850301C08081FF919A
:103D9000EF919F918F912F910F900FBE0F901F90D9
:103DA00018951F920F920FB60F9211242F933F93E5
:103DB0004F935F936F937F938F939F93AF93BF9333
:103DC000EF93FF938CE693E00E94951DFF91EF9196
:103DD000BF91AF919F918F917F916F915F914F9123
:103DE0003F912F910F900FBE0F901F9018958CE66A
:103DF00093E00E945A1D21E0892B09F420E0822FD4
:103E0000089510926F0310926E0388EE93E0A0E085
:103E1000B0E08093700390937103A0937203B0930A
:103E200073038EE291E090936D0380936C0385ECB5
:103E300090E0909379038093780384EC90E09093E2
:103E40007B0380937A0380EC90E090937D038093D2
:103E50007C0381EC90E090937F0380937E0382EC5F
:103E600090E0909381038093800386EC90E09093A0
:103E7000830380938203109285031092860310922D
:103E80008703109288030895CF92DF92EF92FF92FA
:103E90000F931F93CF93DF937C016A01EB0100E046
:103EA00010E00C151D0571F06991D701ED91FC91A1
:103EB0000190F081E02DC7010995892B19F00F5F62
:103EC0001F4FEFCFC801DF91CF911F910F91FF904E
:103ED000EF90DF90CF9008956115710581F0DB01BF
:103EE0000D900020E9F7AD0141505109461B570BD9
:103EF000DC01ED91FC910280F381E02D099480E0DA
:103F000090E00895EF92FF920F931F93CF93DF936A
:103F10008C017B01C0E0D0E0F701EC0FFD1F649144
:103F2000662359F0F801A081B181ED91FC91C8019F
:103F30000995892B11F02196EFCFCE01DF91CF911A
:103F40001F910F91FF90EF9008950C946C1FDC016E
:103F5000ED91FC910190F081E02D09946AE371E00C
:103F60000C946C1F0F931F93CF93DF93EC010E946F
:103F7000821F8C01CE010E94AE1F800F911FDF9126
:103F8000CF911F910F9108958F929F92AF92BF9200
:103F9000CF92DF92EF92FF920F931F93CF93DF9315
:103FA000CDB7DEB7A1970FB6F894DEBF0FBECDBF79
:103FB0007C01C42EE52FCB01D22E19A221E02D15B4
:103FC00010F02AE0D22E8E010F5D1F4F8D2C912C08
:103FD000A12CB12C6C2D7E2FA50194010E94E3240D
:103FE0008C2DD29E80191124015011098A3014F4AD
:103FF000805D01C0895CF801808321153105410590
:10400000510521F0C22EE32FCA01E4CFB801C70148
:104010000E946C1FA1960FB6F894DEBF0FBECDBFF5
:10402000DF91CF911F910F91FF90EF90DF90CF9094
:10403000BF90AF909F908F900895CF92DF92EF92B4
:10404000FF920F931F93CF93DF93EC016A017B01E3
:104050002115310579F4E881F9810190F081E02D95
:10406000642FDF91CF911F910F91FF90EF90DF9020
:10407000CF9009942A303105E9F477FF1AC06DE238
:104080000E94A71F8C0144275527BA014C195D09CE
:104090006E097F092AE0CE010E94C41F800F911F84
:1040A000DF91CF911F910F91FF90EF90DF90CF9014
:1040B00008952AE0B701A601CE01DF91CF911F91AB
:1040C0000F91FF90EF90DF90CF900C94C41F2115BB
:1040D000310541F4DC01ED91FC910190F081E02D7E
:1040E000642F09940C94C41F9A01462F50E060E09D
:1040F00070E00C9467204F925F926F927F928F9244
:104100009F92AF92BF92CF92DF92EF92FF920F9366
:104110001F93CF93DF93EC016A017B01B22E9A01CA
:10412000AB01C701B6010E94AE24882319F06DE3EC
:1041300071E027C026013701E89477F82FEF3FEFB1
:104140004FE75FE7C301B2010E94AE2481110DC0A9
:104150002FEF3FEF4FE75FE7C301B2010E948722D5
:1041600018161CF461E471E00CC02FEF3FEF4FE72D
:104170005FE4C701B6010E94FB231816ACF465E4A6
:1041800071E0CE01DF91CF911F910F91FF90EF90E1
:10419000DF90CF90BF90AF909F908F907F906F9067
:1041A0005F904F900C946C1F2FEF3FEF4FE75FEC49
:1041B000C701B6010E94872287FDE1CF20E030E0F1
:1041C000A901C701B6010E94872287FF0AC06DE2DC
:1041D000CE010E94A71F8C01F7FAF094F7F8F09433
:1041E00002C000E010E0A12C60E070E080E09FE3FE
:1041F000AB1441F020E030E040E251E40E948B2219
:10420000A394F6CF9B01AC01C701B6010E94C12166
:104210006B017C010E94F8222B013C010E942423A7
:104220009B01AC01C701B6010E94C0216B017C015A
:104230002AE0B301A201CE010E94C41F080F191F7A
:10424000BB2039F069E471E0CE010E946C1F080FB9
:10425000191F7B2C772041F120E030E040E251E44F
:10426000C701B6010E9406246B017C010E94F32263
:104270004B01AA2497FCA094BA2C2AE030E0B501A7
:10428000A401CE010E941D20080F191FC501B40111
:104290000E9426239B01AC01C701B6010E94C021E8
:1042A0006B017C017A94D6CFC801DF91CF911F9129
:1042B0000F91FF90EF90DF90CF90BF90AF909F90C5
:1042C0008F907F906F905F904F9008950C947B201B
:1042D0004F925F926F927F92AF92BF92CF92DF9296
:1042E000EF92FF920F931F93CF93DF93CDB7DEB77B
:1042F00029013A01621B730B840B950B29893A89BA
:104300004B895C892A193B094C095D09298B3A8B39
:104310004B8B5C8B9B01AC0169897A898B899C8969
:104320000E94C724E418F50806091709A801970197
:104330000E9405252A0D3B1D4C1D5D1DCA01B901BA
:10434000DF91CF911F910F91FF90EF90DF90CF9071
:10435000BF90AF907F906F905F904F9008950895B9
:104360000E94871C0E94AF210E94350CC7E8DDE146
:104370000E944D0B2097E1F30E94871DF9CF08950D
:104380005058BB27AA270ED0FCC1EDD130F0F2D196
:1043900020F031F49F3F11F41EF4BDC10EF4E095FE
:1043A000E7FBB3C1E92FFED180F3BA1762077307A9
:1043B0008407950718F071F49EF516C20EF4E09587
:1043C0000B2EBA2FA02D0B01B90190010C01CA01CF
:1043D000A0011124FF27591B99F0593F50F4503E7A
:1043E00068F11A16F040A22F232F342F4427585F6C
:1043F000F3CF469537952795A795F0405395C9F784
:104400007EF41F16BA0B620B730B840BBAF091503B
:10441000A1F0FF0FBB1F661F771F881FC2F70EC0DA
:10442000BA0F621F731F841F48F4879577956795AD
:10443000B795F7959E3F08F0B3CF9395880F08F096
:104440009927EE0F9795879508958DD158F080E8BC
:1044500091E009F49EEF8ED128F040E851E059F444
:104460005EEF09C058C1C0C1E92FE0789BD168F365
:10447000092E052AC1F3261737074807590738F0D0
:104480000E2E07F8E02569F0E025E0640AC0EF632E
:1044900007F8009407FADB01B9019D01DC01CA01AC
:1044A000AD01EF9347D06DD10AD05F91552331F024
:1044B0002BED3FE049E450FD49EC63CF0895DF93D5
:1044C000DD27B92FBF7740E85FE3161617064807C8
:1044D0005B0710F4D92F93D19F938F937F936F93A2
:1044E0003AD2E8E6F0E01AD14CD12F913F914F91AA
:1044F0005F9198D1DD2349F09058A2EA2AED3FE080
:1045000049EC5FE3D0785D274DDFDF913AC1D9D028
:1045100008F481E008950CD034C12CD140F023D1AF
:1045200030F021F45F3F19F0F0C051115EC1F3C0CB
:1045300039D198F39923C9F35523B1F3951B550B42
:10454000BB27AA2762177307840738F09F5F5F4F66
:10455000220F331F441FAA1FA9F333D00E2E3AF0A7
:10456000E0E830D091505040E695001CCAF729D0C1
:10457000FE2F27D0660F771F881FBB1F2617370710
:104580004807AB07B0E809F0BB0B802DBF01FF2740
:1045900093585F4F2AF09E3F510568F0B6C025C181
:1045A0005F3FECF3983EDCF3869577956795B7957A
:1045B000F7959F5FC9F7880F911D9695879597F995
:1045C0000895E1E0660F771F881FBB1F621773070E
:1045D0008407BA0720F0621B730B840BBA0BEE1F23
:1045E00088F7E095089504D06894B111FEC008954D
:1045F000E1D088F09F5790F0B92F9927B751A0F0DC
:10460000D1F0660F771F881F991F1AF0BA95C9F766
:1046100012C0B13081F0E8D0B1E00895E5C0672F55
:10462000782F8827B85F39F0B93FCCF38695779516
:104630006795B395D9F73EF49095809570956195FF
:104640007F4F8F4F9F4F0895E89409C097FB3EF42A
:1046500090958095709561957F4F8F4F9F4F9923CF
:10466000A9F0F92F96E9BB279395F695879577954D
:104670006795B795F111F8CFFAF4BB0F11F460FF0D
:104680001BC06F5F7F4F8F4F9F4F16C0882311F065
:1046900096E911C0772321F09EE8872F762F05C079
:1046A000662371F096E8862F70E060E02AF09A9514
:1046B000660F771F881FDAF7880F9695879597F909
:1046C0000895990F0008550FAA0BE0E8FEEF1616A3
:1046D0001706E807F907C0F012161306E407F507F6
:1046E00098F0621B730B840B950B39F40A2661F06A
:1046F000232B242B252B21F408950A2609F4A1400D
:10470000A6958FEF811D811D089597F99F6780E819
:1047100070E060E008959FEF80EC0895DF93CF9301
:104720001F930F93FF92EF92DF927B018C016894AD
:1047300005C0DA2EEF0176D0FE01E894A59125910F
:10474000359145915591AEF3EF012CDEFE019701B5
:10475000A801DA9479F7DF90EF90FF900F911F9105
:10476000CF91DF91089500240A94161617061806B3
:104770000906089500240A94121613061406050665
:104780000895092E0394000C11F4882352F0BB0FF6
:1047900040F4BF2B11F460FF04C06F5F7F4F8F4F59
:1047A0009F4F089557FD9058440F551F59F05F3F94
:1047B00071F04795880F97FB991F61F09F3F79F043
:1047C00087950895121613061406551FF2CF4695C5
:1047D000F1DF08C0161617061806991FF1CF869547
:1047E0007105610508940895E894BB27662777272B
:1047F000CB0197F9089565DF08F48FEF08959B01C9
:10480000AC0160E070E080E89FE385CE0BD0B9CFCB
:10481000AADF28F0AFDF18F0952309F076CF7BCF21
:104820001124E3CFBFDFA0F3959FD1F3950F50E0A4
:10483000551F629FF001729FBB27F00DB11D639F52
:10484000AA27F00DB11DAA1F649F6627B00DA11DF8
:10485000661F829F2227B00DA11D621F739FB00D9E
:10486000A11D621F839FA00D611D221F749F33270E
:10487000A00D611D231F849F600D211D822F762FA7
:104880006A2F11249F5750408AF0E1F088234AF0A4
:10489000EE0FFF1FBB1F661F771F881F91505040F0
:1048A000A9F79E3F510570F030CF9FCF5F3FECF3EB
:1048B000983EDCF3869577956795B795F795E795DC
:1048C0009F5FC1F7FE2B880F911D9695879597F9ED
:1048D000089511F40EF41FCF45C06CDFD0F3992377
:1048E000D9F3CEF39F57550B87FF4AD00024A0E69B
:1048F00040EA900180585695979528F4805C660FA1
:10490000771F881F20F026173707480730F4621BEF
:10491000730B840B202931294A2BA69517940794F1
:10492000202531254A2758F7660F771F881F20F06A
:1049300026173707480730F4620B730B840B200DE2
:10494000311D411DA09581F7B901842F9158880F21
:104950009695879508959B01AC0158CFB2DE880BE0
:10496000990B08959F3F31F0915020F487957795EA
:104970006795B795880F911D9695879597F9089536
:1049800091505040660F771F881FD2F70895DB01C2
:104990008F939F930E942425BF91AF91A29F800D7A
:1049A000911DA39F900DB29F900D11240895991B06
:1049B00079E004C0991F961708F0961B881F7A9516
:1049C000C9F780950895A1E21A2EAA1BBB1BFD0111
:1049D0000DC0AA1FBB1FEE1FFF1FA217B307E407DE
:1049E000F50720F0A21BB30BE40BF50B661F771F36
:1049F000881F991F1A9469F7609570958095909516
:104A00009B01AC01BD01CF010895052E97FB1EF45B
:104A100000940E941C2557FD07D00E94E32407FC48
:104A200003D04EF40C941C2550954095309521955B
:104A30003F4F4F4F5F4F08959095809570956195CA
:104A40007F4F8F4F9F4F08950E943525A59F900D52
:104A5000B49F900DA49F800D911D11240895EE0F19
:104A6000FF1F0590F491E02D0994A29FB001B39F20
:104A7000C001A39F700D811D1124911DB29F700D67
:104A8000811D1124911D0895CF93DF9382309105EC
:104A900010F482E090E0E0910B04F0910C0420E02F
:104AA00030E0A0E0B0E0309739F140815181481703
:104AB0005907B8F04817590771F48281938110970C
:104AC00029F013969C938E9312972CC090930C040C
:104AD00080930B0427C02115310531F0421753078D
:104AE00018F0A901DB0101C0EF019A01BD01DF014E
:104AF0000280F381E02DD7CF21153105F9F0281B75
:104B0000390B2430310580F48A819B816115710550
:104B100021F0FB019383828304C090930C04809363
:104B20000B04FE01329644C0FE01E20FF31F819395
:104B3000919322503109398328833AC02091090486
:104B400030910A04232B41F420910201309103019A
:104B500030930A042093090420910001309101014F
:104B60002115310541F42DB73EB740910401509114
:104B70000501241B350BE0910904F0910A04E217AA
:104B8000F307A0F42E1B3F0B2817390778F0AC0170
:104B90004E5F5F4F2417350748F04E0F5F1F50934D
:104BA0000A04409309048193919302C0E0E0F0E08D
:104BB000CF01DF91CF910895CF93DF93009709F450
:104BC00087C0FC01329713821282C0910B04D091EE
:104BD0000C04209781F420813181280F391F8091A6
:104BE000090490910A048217930779F5F0930A0457
:104BF000E09309046DC0DE0120E030E0AE17BF078E
:104C000050F412964D915C9113979D0141155105F9
:104C100009F1DA01F3CFB383A28340815181840F7C
:104C2000951F8A179B0771F48D919C911197840FA2
:104C3000951F02969183808312968D919C91139774
:104C4000938382832115310529F4F0930C04E093BA
:104C50000B043EC0D9011396FC93EE9312974D912D
:104C60005D91A40FB51FEA17FB0779F4808191814C
:104C7000840F951F0296D90111969C938E93828181
:104C8000938113969C938E931297E0E0F0E08A81D3
:104C90009B81009719F0FE01EC01F9CFCE0102963D
:104CA00028813981820F931F2091090430910A04D1
:104CB0002817390769F4309729F410920C041092E0
:104CC0000B0402C013821282D0930A04C093090419
:104CD000DF91CF910895A0E0B0E0E1E7F6E20C9417
:104CE0004F27EC01CB01209719F40E944425B8C04E
:104CF000FE01E60FF71F9E0122503109E217F3076C
:104D000008F4ACC0D9010D911C9111970617170733
:104D1000B8F00530110508F49FC0A80144505109AE
:104D20004617570708F498C002501109061B170BC5
:104D3000019311936D937C93CF010E94DC258CC06D
:104D40005B01A01AB10A4E01800E911EA0910B04C6
:104D5000B0910C04612C712C60E070E0109709F4A4
:104D600049C0A815B905C9F5ED90FC9011976701E8
:104D700042E0C40ED11CCA14DB0478F147018A1842
:104D80009B08640142E0C40ED11C1296BC9012979D
:104D90001396AC91B5E0CB16D10440F0B282A38358
:104DA00091828082D9018D939C9309C00E5F1F4F21
:104DB0000E0D1F1DF90111830083EB2DFA2F6115D4
:104DC000710531F0DB011396FC93EE93129744C00A
:104DD000F0930C04E0930B043FC06D917C9111970C
:104DE0006616770608F43B01BD0112960D90BC9142
:104DF000A02DB4CF6091090470910A04681579055B
:104E0000E9F468167906D0F440910001509101014F
:104E10004115510541F44DB75EB7609104017091A1
:104E20000501461B570BE417F507C0F4F0930A047D
:104E3000E0930904F901918380830EC00E94442508
:104E40007C01009759F0A801BE010E944227CE01C3
:104E50000E94DC25C70104C0CE0102C080E090E0C2
:104E6000CDB7DEB7EEE00C946B27FB01DC0104C08C
:104E70008D910190801921F441505040C8F7881B52
:104E8000990B0895FB01DC0102C001900D92415085
:104E90005040D8F708952F923F924F925F926F92B1
:104EA0007F928F929F92AF92BF92CF92DF92EF92BA
:104EB000FF920F931F93CF93DF93CDB7DEB7CA1B3B
:104EC000DB0B0FB6F894DEBF0FBECDBF09942A8866
:104ED000398848885F846E847D848C849B84AA840E
:104EE000B984C884DF80EE80FD800C811B81AA819B
:104EF000B981CE0FD11D0FB6F894DEBF0FBECDBF66
:084F0000ED010895F894FFCFC4
:104F080000000D048000010000000000803F000048
:104F1800A04000000040E8032C000000000024131B
:104F2800F712CC12D412E712F61200000000D81DB6
:104F3800441F5A1D731D651DB61D0D0A006E616E56
:0C4F480000696E66006F7666002E0000A7
:00000001FF
