:100000000C945D000C9485000C9485000C94850084
:100010000C9485000C9485000C9485000C9485004C
:100020000C9485000C9485000C9485000C94870139
:100030000C9485000C9485000C9485000C9485002C
:100040000C947B030C9485000C9485000C94850023
:100050000C9485000C9485000C9485000C9485000C
:100060000C9485000C94850000000008000201003B
:100070000003040700000000000000000102040863
:100080001020408001020408102001020408102002
:10009000040404040404040402020202020203032E
:1000A0000303030300000000250028002B000000CC
:1000B0000000240027002A00770111241FBECFEF83
:1000C000D8E0DEBFCDBF21E0A4E0B1E001C01D92C9
:1000D000AF33B207E1F711E0A0E0B1E0E4E7FBE005
:1000E00002C005900D92A430B107D9F710E0CAEB19
:1000F000D0E004C02297FE010E94A505C83BD107AD
:10010000C9F70E942B050C94B8050C9400006AE016
:1001100070E08DE091E00E94DD026BE070E08AE02B
:1001200091E00E94DD0265E070E087E091E00E94CE
:10013000DD0266E070E084E091E00E94DD026AE5A5
:1001400070E08DE091E00E9416036AE570E08AE0BD
:1001500091E00E9416036AE570E087E091E00E945A
:1001600016036AE570E084E091E00C94160368E7FA
:1001700070E08DE091E00E94160368EE73E080E08D
:1001800090E00E94E8036AE570E08DE091E00E9453
:10019000160368EE73E080E090E00E94E8036CE3F1
:1001A00070E08DE091E00E94160368EE73E080E05D
:1001B00090E00E94E8036AE570E08DE091E00E9423
:1001C000160368EE73E080E090E00E94E80368E7C1
:1001D00070E08AE091E00E94160368EE73E080E030
:1001E00090E00E94E8036AE570E08AE091E00E94F6
:1001F000160368EE73E080E090E00E94E8036CE391
:1002000070E08AE091E00E94160368EE73E080E0FF
:1002100090E00E94E8036AE570E08AE091E00E94C5
:10022000160368EE73E080E090E00E94E80368E760
:1002300070E087E091E00E94160368EE73E080E0D2
:1002400090E00E94E8036AE570E087E091E00E9498
:10025000160368EE73E080E090E00E94E8036CE330
:1002600070E087E091E00E94160368EE73E080E0A2
:1002700090E00E94E8036AE570E087E091E00E9468
:10028000160368EE73E080E090E00E94E80368E700
:1002900070E084E091E00E94160368EE73E080E075
:1002A00090E00E94E8036AE570E084E091E00E943B
:1002B000160368EE73E080E090E00E94E8036CE3D0
:1002C00070E084E091E00E94160368EE73E080E045
:1002D00090E00E94E8036AE570E084E091E00E940B
:1002E000160368EE73E080E090E00C94E8038DE084
:1002F00091E00E9443028AE091E00E94430287E07D
:1003000091E00E94430284E091E00C9443021F922A
:100310000F920FB60F9211242F933F934F935F9339
:100320006F937F938F939F93AF93BF93EF93FF93BD
:100330008091110187FF05C0109285001092840002
:100340001AC020911101332727FD309580911001AB
:1003500090E0281739077CF480911101992787FDD7
:100360009095FC01EE0FFF1FE80FF91FEE5EFE4FA8
:10037000808186FD15C0809111018F5F80931101EE
:1003800020911101332727FD30958091100190E0D5
:1003900028173907BCF4809111018C305CF112C030
:1003A00080911101992787FD9095FC01EE0FFF1FA9
:1003B000E80FF91FEE5EFE4F808160E08F730E94B0
:1003C000AD04D9CF8091840090918500049680344B
:1003D0009C4918F480E49CE905C0809184009091C8
:1003E0008500049690938900809388008FEF809316
:1003F000110138C020918400309185008091110155
:10040000992787FD9095FC01EE0FFF1FE80FF91F5C
:10041000EE5EFE4F81819281820F931F909389003F
:100420008093880080911101992787FD9095FC01A8
:10043000EE0FFF1FE80FF91FEE5EFE4F808186FF73
:1004400011C080911101992787FD9095FC01EE0F55
:10045000FF1FE80FF91FEE5EFE4F808161E08F7392
:100460000E94AD04FF91EF91BF91AF919F918F9149
:100470007F916F915F914F913F912F910F900FBEA0
:100480000F901F901895209110012C30A0F431E0AE
:10049000320F30931001FC012083822F90E0FC0189
:1004A000EE0FFF1FE80FF91FEE5EFE4F88EB9BE09B
:1004B0009283818308952FEFFC0120830895DF92BA
:1004C000EF92FF920F931F93CF93DF93EC01D62E01
:1004D0007A01890188818C3008F066C061E08D2D39
:1004E0000E9474048881A82FB0E0FD01EE0FFF1F69
:1004F000EA0FFB1FEE5EFE4F2D2D2F739081907C37
:10050000922B908360E272E06E197F0977FF02C040
:100510006D5F7F4F7595679575956795698340E623
:1005200059E0401B510B57FF02C04D5F5F4F55957F
:100530004795559547954A836CE00E944B059CE092
:10054000899FB001112420E030E0A901460F571F18
:10055000FA01EE0FFF1FE40FF51FEE5EFE4F9081D4
:1005600096FD16C02F5F3F4F2C30310571F781117A
:100570000FC01092800082E080938100109285006D
:1005800010928400B19A80916F00826080936F0016
:10059000888190E0FC01EE0FFF1FE80FF91FEE5E6F
:1005A000FE4F8081806480838881DF91CF911F918D
:1005B0000F91FF90EF90DF90089520E639E040E240
:1005C00052E00C945F02FC0180818C3070F59181C7
:1005D00028E830E0291B310997FD3395220F331F9E
:1005E000220F331F621773077CF0928128E532E0F7
:1005F000291B310997FD3395220F331F220F331F1B
:10060000621773070CF49B0122503109220F331F2C
:100610004FB7F89490E0FC01EE0FFF1FE80FF91FB1
:10062000EE5EFE4F328321834FBF08954F925F925B
:100630006F927F92AF92BF92CF92DF92EF92FF9232
:100640000F931F93CF93DF93EC01603282E0780722
:100650000CF040C077FD06C0653B71052CF064EBE3
:1006600070E002C060E070E0898128E830E0281B7B
:10067000310987FD3395220F331F220F331F590194
:10068000CC24B7FCC094DC2C882777FD8095982F6C
:100690002A8148E552E0421B510927FD5395440F3A
:1006A000551F440F551F2A01662457FC6094762C71
:1006B0007F926F925F924F9214EBE12EF12C00E04B
:1006C00010E020E030E0A9010E94E3040F900F90B9
:1006D0000F900F90CE01DF91CF911F910F91FF905E
:1006E000EF90DF90CF90BF90AF907F906F905F9032
:1006F0004F900C94E3021F920F920FB60F921124A9
:100700002F933F938F939F93AF93BF938091370124
:1007100090913801A0913901B0913A0130913601A0
:1007200023E0230F2D3720F40196A11DB11D05C034
:1007300026E8230F0296A11DB11D20933601809358
:10074000370190933801A0933901B0933A01809119
:100750003B0190913C01A0913D01B0913E01019679
:10076000A11DB11D80933B0190933C01A0933D01DD
:10077000B0933E01BF91AF919F918F913F912F9187
:100780000F900FBE0F901F9018953FB7F89480916F
:100790003B0190913C01A0913D01B0913E0126B5F5
:1007A000A89B05C02F3F19F00196A11DB11D3FBFA9
:1007B0006627782F892F9A2F620F711D811D911D39
:1007C00042E0660F771F881F991F4A95D1F7089559
:1007D000CF92DF92EF92FF92CF93DF936B017C0178
:1007E0000E94C503EB01C114D104E104F10489F0B6
:1007F0000E943A050E94C5036C1B7D0B683E734046
:1008000090F381E0C81AD108E108F108C851DC4F23
:10081000EACFDF91CF91FF90EF90DF90CF900895D6
:10082000789484B5826084BD84B5816084BD85B5CB
:10083000826085BD85B5816085BDEEE6F0E0808192
:1008400081608083E1E8F0E01082808182608083B3
:10085000808181608083E0E8F0E080818160808336
:10086000E1EBF0E0808184608083E0EBF0E0808168
:1008700081608083EAE7F0E080818460808380810A
:1008800082608083808181608083808180688083B2
:100890001092C1000895833081F028F4813099F0DE
:1008A0008230A1F008958730A9F08830B9F0843003
:1008B000D1F4809180008F7D03C0809180008F777C
:1008C00080938000089584B58F7702C084B58F7DB2
:1008D00084BD08958091B0008F7703C08091B000EF
:1008E0008F7D8093B0000895CF93DF9390E0FC015B
:1008F000E458FF4F2491FC01E057FF4F8491882377
:1009000049F190E0880F991FFC01E255FF4FA59136
:10091000B4918C559F4FFC01C591D4919FB7611143
:1009200008C0F8948C91209582238C93888182232F
:100930000AC0623051F4F8948C91322F30958323A1
:100940008C938881822B888304C0F8948C91822BAD
:100950008C939FBFDF91CF9108950F931F93CF93F7
:10096000DF931F92CDB7DEB7282F30E0F901E859A9
:10097000FF4F8491F901E458FF4F1491F901E057BA
:10098000FF4F04910023C9F0882321F069830E945E
:100990004B046981E02FF0E0EE0FFF1FEC55FF4F95
:1009A000A591B4919FB7F8948C91611103C01095F3
:1009B000812301C0812B8C939FBF0F90DF91CF913A
:1009C0001F910F9108954F925F926F927F92AF9215
:1009D000BF92CF92DF92EF92FF920F931F93CF932C
:1009E000DF93CDB7DEB729013A01621B730B840B8D
:1009F000950B29893A894B895C892A193B094C094D
:100A00005D09298B3A8B4B8B5C8B9B01AC0169890F
:100A10007A898B899C890E943B05E418F5080609B0
:100A20001709A80197010E9457052A0D3B1D4C1D6F
:100A30005D1DCA01B901DF91CF911F910F91FF9008
:100A4000EF90DF90CF90BF90AF907F906F905F90CE
:100A50004F90089508950E9410040E942A050E9454
:100A60008700C0E0D0E00E94B7002097E1F30E9429
:100A70000000F9CF0895DB018F939F930E947605C4
:100A8000BF91AF91A29F800D911DA39F900DB29F2A
:100A9000900D11240895991B79E004C0991F9617B1
:100AA00008F0961B881F7A95C9F780950895052E42
:100AB00097FB1EF400940E946E0557FD07D00E941C
:100AC000810507FC03D04EF40C946E0550954095BB
:100AD000309521953F4F4F4F5F4F089590958095EA
:100AE000709561957F4F8F4F9F4F08950E94A90584
:100AF000A59F900DB49F900DA49F800D911D112472
:100B00000895A1E21A2EAA1BBB1BFD010DC0AA1F4E
:100B1000BB1FEE1FFF1FA217B307E407F50720F066
:100B2000A21BB30BE40BF50B661F771F881F991FE1
:100B30001A9469F760957095809590959B01AC012A
:100B4000BD01CF010895EE0FFF1F0590F491E02D38
:100B50000994A29FB001B39FC001A39F700D811D96
:100B60001124911DB29F700D811D1124911D0895B6
:040B7000F894FFCF27
:040B7400010000007C
:107E0000112484B714BE81FFF0D085E080938100F7
:107E100082E08093C00088E18093C10086E0809377
:107E2000C20080E18093C4008EE0C9D0259A86E02C
:107E300020E33CEF91E0309385002093840096BBD3
:107E4000B09BFECF1D9AA8958150A9F7CC24DD24C4
:107E500088248394B5E0AB2EA1E19A2EF3E0BF2EE7
:107E6000A2D0813461F49FD0082FAFD0023811F036
:107E7000013811F484E001C083E08DD089C08234E0
:107E800011F484E103C0853419F485E0A6D080C0E4
:107E9000853579F488D0E82EFF2485D0082F10E0AE
:107EA000102F00270E291F29000F111F8ED06801E7
:107EB0006FC0863521F484E090D080E0DECF843638
:107EC00009F040C070D06FD0082F6DD080E0C81688
:107ED00080E7D80618F4F601B7BEE895C0E0D1E017
:107EE00062D089930C17E1F7F0E0CF16F0E7DF06D8
:107EF00018F0F601B7BEE89568D007B600FCFDCFD4
:107F0000A601A0E0B1E02C9130E011968C91119780
:107F100090E0982F8827822B932B1296FA010C0160
:107F200087BEE89511244E5F5F4FF1E0A038BF0790
:107F300051F7F601A7BEE89507B600FCFDCF97BE46
:107F4000E89526C08437B1F42ED02DD0F82E2BD052
:107F50003CD0F601EF2C8F010F5F1F4F84911BD097
:107F6000EA94F801C1F70894C11CD11CFA94CF0C13
:107F7000D11C0EC0853739F428D08EE10CD085E9AC
:107F80000AD08FE07ACF813511F488E018D01DD067
:107F900080E101D065CF982F8091C00085FFFCCF94
:107FA0009093C60008958091C00087FFFCCF809118
:107FB000C00084FD01C0A8958091C6000895E0E648
:107FC000F0E098E1908380830895EDDF803219F02E
:107FD00088E0F5DFFFCF84E1DECF1F93182FE3DFCA
:107FE0001150E9F7F2DF1F91089580E0E8DFEE27F6
:047FF000FF270994CA
:027FFE00040479
:0400000300007E007B
:00000001FF
